:100000000A168A15A72C00308A000408840A820781
:10001000003443345934543452344F344E34003461
:1000260083120313A4003330240203181B281C2850
:100036004928A201A3010A168A150F250A128A1158
:10004600710883120313A301A3077008A201A20774
:100056002408A000A1012008F0002108F1002308CF
:10006600F301F3072208F201F2070A168A15E524BE
:100076000A128A117008F6007108F700F801F901F2
:100086000A168A153B250A128A1149280800831286
:100096000313A501A6012608803AFF0080307F02DF
:1000A600031D572808302502031C5A285B285D28A3
:1000B600E428E42883120313A701A8012808803A3C
:1000C600FF0080307F02031D6A2808302702031CC8
:1000D6006D286E287028CE28CE2883120313A90116
:1000E600AA012A08803AFF0080307F02031D7D287E
:1000F60008302902031C802881288328B828B828BC
:10010600831203132A08F101F1072908F001F00709
:100116002808F301F3072708F201F2072608F5017C
:10012600F5072508F401F4070A168A15C4250A12EC
:100136008A110A300A128A1113200A128A11013012
:1001460083120313A9070318AA0A0030AA072A086C
:10015600803AFF0080307F02031DB3280830290251
:10016600031CB628B7288328B82801308312031346
:10017600A7070318A80A0030A8072808803AFF0036
:1001860080307F02031DC92808302702031CCC28B3
:10019600CD287028CE28013083120313A507031833
:1001A600A60A0030A6072608803AFF0080307F02A4
:1001B600031DDF2808302502031CE228E3285D28FA
:1001C600E4280800053083160313DC000030DD0048
:1001D600DE3084009830F5000408F6000830F70099
:1001E6007508840083170008F800F50A760884006D
:1001F600831378088000F60AF70BF3288030F500A1
:100206007508DE004030F5007508DF002030F50087
:100216007508E0001030F5007508E1000830F500BB
:100226007508E2000430F5007508E3000230F500B9
:100236007508E400E5010314E50DA001A1016C2990
:100246000730F6007D30F500F50B2729F60B272938
:1002560083160313BE01BF013F08803AFF008030BA
:100266007F02031D382908303E02031C3B293C2926
:100276003E29642964290330F5007508F000DE3054
:10028600F6007608F100831603133E080A168A1153
:1002960051240A128A11013083160313BE0703186C
:1002A600BF0A0030BF073F08803AFF0080307F0258
:1002B600031D5F2908303E02031C622963293E297B
:1002C6006429013083160313A0070318A10A00301E
:1002D600A1072108803AF5005D08803A7502031DE2
:1002E60076295C082002031C79297A29232983169A
:1002F6000313DE018030F5007508DF004030F5009D
:100306007508E0003030F5007508E1000C30F500A6
:100316007508E2000230F5007508E300E4010314F5
:10032600E40DE501A201A301E1290730F6007D30C5
:10033600F500F50B9C29F60B9C2983160313C001C7
:10034600C1014108803AFF0080307F02031DAD29BC
:1003560008304002031CB029B129B329D929D9296B
:100366000330F5007508F000DE30F6007608F1007F
:100376008316031340080A168A1151240A128A1199
:10038600013083160313C0070318C10A0030C107E2
:100396004108803AFF0080307F02031DD4290830CF
:1003A6004002031CD729D829B329D929013083163D
:1003B6000313A2070318A30A0030A3072308803AF1
:1003C600F5005D08803A7502031DEB295C082202E0
:1003D600031CEE29EF29982983160313DE01DF019A
:1003E600C030F5007508E0003030F5007508E10012
:1003F6000C30F5007508E2000330F5007508E300DF
:10040600E401E501A401A501512A0730F6007D307B
:10041600F500F50B0C2AF60B0C2A83160313C20102
:10042600C3014308803AFF0080307F02031D1D2A66
:1004360008304202031C202A212A232A492A492A53
:100446000330F5007508F000DE30F6007608F1009E
:100456008316031342080A168A1151240A128A11B6
:10046600013083160313C2070318C30A0030C307FB
:100476004308803AFF0080307F02031D442A08307B
:100486004202031C472A482A232A492A0130831696
:100496000313A4070318A50A0030A5072508803A08
:1004A600F5005D08803A7502031D5B2A5C0824028C
:1004B600031C5E2A5F2A082A83160313DE01DF0166
:1004C600E001F030F5007508E1000F30F500750821
:1004D600E200E301E401E501A601A701BB2A07301A
:1004E600F6007D30F500F50B762AF60B762A831694
:1004F6000313C401C5014508803AFF0080307F021E
:10050600031D872A08304402031C8A2A8B2A8D2A57
:10051600B32AB32A0330F5007508F000DE30F60082
:100526007608F1008316031344080A168A1151242B
:100536000A128A11013083160313C4070318C50A69
:100546000030C5074508803AFF0080307F02031D52
:10055600AE2A08304402031CB12AB22A8D2AB32AD5
:10056600013083160313A6070318A70A0030A7074E
:100576002708803AF5005D08803A7502031DC52AF2
:100586005C082602031CC82AC92A722A831603138A
:10059600DE01DF01E0010F30F5007508E100F03003
:1005A600F5007508E200E301E401E501A801A901EF
:1005B600252B0730F6007D30F500F50BE02AF60B0B
:1005C600E02A83160313C601C7014708803AFF00D5
:1005D60080307F02031DF12A08304602031CF42AEC
:1005E600F52AF72A1D2B1D2B0330F5007508F000A0
:1005F600DE30F6007608F1008316031346080A1665
:100606008A1151240A128A11013083160313C60770
:100616000318C70A0030C7074708803AFF00803032
:100626007F02031D182B08304602031C1B2B1C2BB4
:10063600F72A1D2B013083160313A8070318A90AEE
:100646000030A9072908803AF5005D08803A75024E
:10065600031D2F2B5C082802031C322B332BDC2AAC
:1006660083160313DE01DF010330F5007508E00091
:100676000C30F5007508E1003030F5007508E20031
:10068600C030F5007508E300E401E501AA01AB01FD
:10069600952B0730F6007D30F500F50B502BF60B49
:1006A600502B83160313C801C9014908803AFF007D
:1006B60080307F02031D612B08304802031C642B27
:1006C600652B672B8D2B8D2B0330F5007508F000FD
:1006D600DE30F6007608F1008316031348080A1682
:1006E6008A1151240A128A11013083160313C8078E
:1006F6000318C90A0030C9074908803AFF0080304C
:100706007F02031D882B08304802031C8B2B8C2B81
:10071600672B8D2B013083160313AA070318AB0A28
:100726000030AB072B08803AF5005D08803A750269
:10073600031D9F2B5C082A02031CA22BA32B4C2B08
:1007460083160313DE01DF010314DF0D0230F5000B
:100756007508E0000C30F5007508E1003030F50052
:100766007508E2004030F5007508E3008030F500BA
:100776007508E400E501AC01AD010A2C0730F6006E
:100786007D30F500F50BC52BF60BC52B8316031331
:10079600CA01CB014B08803AFF0080307F02031D5F
:1007A600D62B08304A02031CD92BDA2BDC2B022C61
:1007B600022C0330F5007508F000DE30F6007608EE
:1007C600F100831603134A080A168A1151240A12E5
:1007D6008A11013083160313CA070318CB0A0030A7
:1007E600CB074B08803AFF0080307F02031DFD2BAC
:1007F60008304A02031C002C012CDC2B022C013091
:1008060083160313AC070318AD0A0030AD072D0895
:10081600803AF5005D08803A7502031D142C5C08C9
:100826002C02031C172C182CC12B192C831603130E
:10083600DE010314DE0D0230F5007508DF0004301A
:10084600F5007508E0000830F5007508E100103085
:10085600F5007508E2002030F5007508E300403029
:10086600F5007508E4008030F5007508E500AE0176
:10087600AF01862C0730F6007D30F500F50B412CD4
:10088600F60B412C83160313CC01CD014D08803A9B
:10089600FF0080307F02031D522C08304C02031CDF
:1008A600552C562C582C7E2C7E2C0330F5007508C2
:1008B600F000DE30F6007608F100831603134C08CC
:1008C6000A168A1151240A128A110130831603135B
:1008D600CC070318CD0A0030CD074D08803AFF003B
:1008E60080307F02031D792C08304C02031C7C2CBF
:1008F6007D2C582C7E2C013083160313AE0703186B
:10090600AF0A0030AF072F08803AF5005D08803A3D
:100916007502031D902C5C082E02031C932C942C4C
:100926003D2C952C0230F500750883160313DE0066
:100936000430F5007508DF000830F5007508E000A2
:100946000830F5007508E1001030F5007508E20082
:100956001030F5007508E3002030F5007508E40056
:100966004030F5007508E500B001B101032D0730F0
:10097600F6007D30F500F50BBE2CF60BBE2C83166B
:100986000313CE01CF014F08803AFF0080307F026B
:10099600031DCF2C08304E02031CD22CD32CD52C91
:1009A600FB2CFB2C0330F5007508F000DE30F6005A
:1009B6007608F100831603134E080A168A1151248D
:1009C6000A128A11013083160313CE070318CF0AC1
:1009D6000030CF074F08803AFF0080307F02031DAA
:1009E600F62C08304E02031CF92CFA2CD52CFB2CC5
:1009F600013083160313B0070318B10A0030B1079C
:100A06003108803AF5005D08803A7502031D0D2D08
:100A16005C083002031C102D112DBA2C122D043047
:100A2600F500750883160313DE000430F50075081B
:100A3600DF000830F5007508E0000830F50075089D
:100A4600E1001030F5007508E2001030F500750879
:100A5600E3002030F5007508E4002030F500750845
:100A6600E500B201B301802D0730F6007D30F500B8
:100A7600F50B3B2DF60B3B2D83160313D001D1014D
:100A86005108803AFF0080307F02031D4C2D08304C
:100A96005002031C4F2D502D522D782D782D0330EA
:100AA600F5007508F000DE30F6007608F1008316D2
:100AB600031350080A168A1151240A128A110130AA
:100AC60083160313D0070318D10A0030D107510843
:100AD600803AFF0080307F02031D732D08305002DC
:100AE600031C762D772D522D782D01308316031396
:100AF600B2070318B30A0030B3073308803AF5008B
:100B06005D08803A7502031D8A2D5C083202031CBB
:100B16008D2D8E2D372D8F2D0830F50075088316F7
:100B26000313DE000830F5007508DF000830F50015
:100B36007508E0000830F5007508E1001030F50092
:100B46007508E2001030F5007508E3001030F50076
:100B56007508E4001030F5007508E500B401B5012C
:100B6600FD2D0730F6007D30F500F50BB82DF60BA0
:100B7600B82D83160313D201D3015308803AFF0020
:100B860080307F02031DC92D08305202031CCC2D74
:100B9600CD2DCF2DF52DF52D0330F5007508F00080
:100BA600DE30F6007608F1008316031352080A16A3
:100BB6008A1151240A128A11013083160313D207AF
:100BC6000318D30A0030D3075308803AFF00803059
:100BD6007F02031DF02D08305202031CF32DF42D65
:100BE600CF2DF52D013083160313B4070318B50A6C
:100BF6000030B5073508803AF5005D08803A750281
:100C0600031D072E5C083402031C0A2E0B2EB42D7E
:100C16000C2E1030F500750883160313DE00103015
:100C2600F5007508DF001030F5007508E00010309B
:100C3600F5007508E1000830F5007508E200083097
:100C4600F5007508E3000830F5007508E400083083
:100C5600F5007508E500B601B7017A2E0730F600F3
:100C66007D30F500F50B352EF60B352E8316031366
:100C7600D401D5015508803AFF0080307F02031D5C
:100C8600462E08305402031C492E4A2E4C2E722E34
:100C9600722E0330F5007508F000DE30F600760897
:100CA600F1008316031354080A168A1151240A12F6
:100CB6008A11013083160313D4070318D50A0030AE
:100CC600D5075508803AFF0080307F02031D6D2E40
:100CD60008305402031C702E712E4C2E722E0130D9
:100CE60083160313B6070318B70A0030B707370889
:100CF600803AF5005D08803A7502031D842E5C0873
:100D06003602031C872E882E312E892E2030F500C0
:100D1600750883160313DE002030F5007508DF0022
:100D26001030F5007508E0001030F5007508E10098
:100D36000830F5007508E2000830F5007508E30094
:100D46000430F5007508E4000430F5007508E50088
:100D5600B801B901F72E0730F6007D30F500F50B26
:100D6600B22EF60BB22E83160313D601D7015708FF
:100D7600803AFF0080307F02031DC32E08305602E2
:100D8600031CC62EC72EC92EEF2EEF2E0330F500FC
:100D96007508F000DE30F6007608F10083160313BE
:100DA60056080A168A1151240A128A11013083162E
:100DB6000313D6070318D70A0030D7075708803A17
:100DC600FF0080307F02031DEA2E08305602031C06
:100DD600ED2EEE2EC92EEF2E013083160313B80723
:100DE6000318B90A0030B9073908803AF5005D08DA
:100DF600803A7502031D012F5C083802031C042F7C
:100E0600052FAE2E062F4030F50075088316031306
:100E1600DE002030F5007508DF001030F50075089B
:100E2600E0001030F5007508E1000830F50075089F
:100E3600E2000830F5007508E3000430F500750897
:100E4600E4000230F5007508E500BA01BB01742F15
:100E56000730F6007D30F500F50B2F2FF60B2F2F00
:100E660083160313D801D9015908803AFF00803050
:100E76007F02031D402F08305802031C432F442FC6
:100E8600462F6C2F6C2F0330F5007508F000DE300E
:100E9600F6007608F1008316031358080A168A111D
:100EA60051240A128A11013083160313D807031836
:100EB600D90A0030D9075908803AFF0080307F02EE
:100EC600031D672F08305802031C6A2F6B2F462F0D
:100ED6006C2F013083160313BA070318BB0A0030C0
:100EE600BB073B08803AF5005D08803A7502031D92
:100EF6007E2F5C083A02031C812F822F2B2F832F13
:100F06008030F500750883160313DE004030F500C7
:100F16007508DF002030F5007508E0001030F50098
:100F26007508E1000830F5007508E2000430F500A8
:100F36007508E3000230F5007508E400E5010314C6
:100F4600E50DBC01BD01F02F0730F6007D30F50040
:100F5600F50BAB2FF60BAB2F83160313DA01DB0170
:100F66005B08803AFF0080307F02031DBC2F0830EB
:100F76005A02031CBF2FC02FC22FE82FE82F0330C1
:100F8600F5007508F000DE30F6007608F1008316ED
:100F960003135A080A168A1151240A128A110130BB
:100FA60083160313DA070318DB0A0030DB075B0836
:100FB600803AFF0080307F02031DE32F08305A027B
:100FC600031CE62FE72FC22FE82F013083160313E9
:100FD600BC070318BD0A0030BD073D08803AF5007E
:100FE6005D08803A7502031DFA2F5C083C02031C5B
:0A0FF600FD2FFE2FA72FFF2F08008C
:10100400323084004C30F5000408F6000830F70054
:101014007508840083130008F800F50A7608840034
:1010240078088000F60AF70B0A28FF30F5007508E7
:1010340083120313B2008130F5007508B3008130C8
:10104400F5007508B4008130F5007508B5008130ED
:10105400F5007508B6008130F5007508B7008130D9
:10106400F5007508B800FF30F5007508B9000330C5
:10107400F5007508F0003230F6007608F100003013
:101084000A168A1151240A128A150D30F700AF305E
:10109400F600C130F500F50B4D28F60B4D28F70B83
:1010A4004D28640083120313B2017E30F5007508E5
:1010B400B3004230F5007508B4004230F5007508FD
:1010C400B5004230F5007508B6004230F5007508E9
:1010D400B7007E30F5007508B800B9010330F5009B
:1010E4007508F0003230F6007608F10001300A1677
:1010F4008A1151240A128A150D30F700AF30F60018
:10110400C130F500F50B8428F60B8428F70B8428EE
:10111400640083120313B201B3013C30F500750877
:10112400B4002430F5007508B5002430F5007508C6
:10113400B6003C30F5007508B700B801B9010330BA
:10114400F5007508F0003230F6007608F100023040
:101154000A168A1151240A128A150D30F700AF308D
:10116400F600C130F500F50BB528F60BB528F70BE2
:10117400B528640083120313B201B301B40118301B
:10118400F5007508B5001830F5007508B600B7010C
:10119400B801B9010330F5007508F0003230F600EB
:1011A4007608F10003300A168A1151240A128A15AE
:1011B4000D30F700AF30F600C130F500F50BE02834
:1011C400F60BE028F70BE028640083120313B20146
:1011D400B301B4011830F5007508B5001830F500F6
:1011E4007508B600B701B801B9010330F5007508F8
:1011F400F0003230F6007608F10004300A168A1145
:1012040051240A128A150D30F700AF30F600C130B0
:10121400F500F50B0B29F60B0B29F70B0B296400D2
:1012240083120313B201B3013C30F5007508B40016
:101234002430F5007508B5002430F5007508B600B3
:101244003C30F5007508B700B801B9010330F5006A
:101254007508F0003230F6007608F10005300A1601
:101264008A1151240A128A150D30F700AF30F600A6
:10127400C130F500F50B3C29F60B3C29F70B3C2952
:10128400640083120313B2017E30F5007508B300C5
:101294004230F5007508B4004230F5007508B50019
:1012A4004230F5007508B6004230F5007508B70005
:1012B4007E30F5007508B800B9010330F5007508F3
:1012C400F0003230F6007608F10006300A168A1172
:1012D40051240A128A150D30F700AF30F600C130E0
:1012E400F500F50B7329F60B7329F70B73296400CA
:1012F400FF30F500750883120313B2008130F50046
:101304007508B3008130F5007508B4008130F5002C
:101314007508B5008130F5007508B6008130F50018
:101324007508B7008130F5007508B800FF30F50086
:101334007508B9000730B0000030B1003108803AB8
:10134400FF0080307F02031DA929013030020318F9
:10135400AC29AD29AF29E229E2290330F50075084B
:10136400F0003230F6007608F100831203133008DF
:101374000A168A1151240A128A150D30F700AF306B
:10138400F600C130F500F50BC529F60BC529F70B9E
:10139400C5296400FF3083120313B0070318B10A90
:1013A400FF30B1073108803AFF0080307F02031D0F
:1013B400DD29013030020318E029E129AF29E229AF
:1013C4000800F200AF2FC330F100700884007108E8
:1013D40083138000C330F1007008013E840071085B
:1013E4008000FF30F1007008023E84007108800024
:1013F400FF30F1007008033E840071088000C330A0
:10140400F1007008043E840071088000E730F100A8
:101414007008053E8400710880007E30F100700879
:10142400063E8400710880003C30F1007008073EDD
:10143400840071088000FF2F3F30F10070088400A1
:10144400710883138000FF30F1007008013E8400AE
:1014540071088000C330F1007008023E84007108F6
:101464008000FF30F1007008033E840071088000A2
:10147400FF30F1007008043E840071088000C3301E
:10148400F1007008053E840071088000FF30F1000F
:101494007008063E8400710880003F30F100700837
:1014A400073E840071088000FF2FFF30F1007008B0
:1014B4008400710883138000FF30F1007008013E3E
:1014C4008400710880000330F1007008023E84003B
:1014D400710880000330F1007008033E8400710835
:1014E40080000330F1007008043E8400710880001D
:1014F4000330F1007008053E840071088000FF305D
:10150400F1007008063E840071088000FF30F1008D
:101514007008073E840071088000FF2F3F30F100FF
:10152400700884007108831380007F30F100700814
:10153400013E840071088000C330F1007008023E4F
:10154400840071088000C330F1007008033E8400F9
:1015540071088000C330F1007008043E84007108F3
:101564008000C330F1007008053E840071088000DB
:101574007F30F1007008063E8400710880003F301F
:10158400F1007008073E840071088000FF2FFF30CF
:10159400F10070088400710883138000FF30F100AB
:1015A4007008013E8400710880000330F100700867
:1015B400023E840071088000FF30F1007008033E91
:1015C400840071088000FF30F1007008043E84003C
:1015D400710880000330F1007008053E8400710832
:1015E4008000FF30F1007008063E8400710880001E
:1015F400FF30F1007008073E840071088000FF2F5F
:101604000330F100700884007108831380000330F4
:10161400F1007008013E8400710880000330F1007D
:101624007008023E840071088000FF30F1007008E9
:10163400033E840071088000FF30F1007008043E0E
:101644008400710880000330F1007008053E8400B6
:1016540071088000FF30F1007008063E84007108B4
:101664008000FF30F1007008073E8400710880009C
:10167400FF2FFE30F100700884007108831380008E
:10168400FF30F1007008013E840071088000C3300F
:10169400F1007008023E840071088000F330F1000C
:1016A4007008033E840071088000F330F100700874
:1016B400043E8400710880000330F1007008053E88
:1016C400840071088000FE30F1007008063E84003A
:1016D40071088000FC30F1007008073E8400710836
:1016E4008000FF2FC330F100700884007108831359
:1016F4008000C330F1007008013E8400710880004E
:10170400C330F1007008023E840071088000FF308D
:10171400F1007008033E840071088000FF30F1007E
:101724007008043E840071088000C330F100700822
:10173400053E840071088000C330F1007008063E45
:10174400840071088000C330F1007008073E8400F3
:1017540071088000FF2FFF30F100700884007108C9
:1017640083138000FF30F1007008013E840071088B
:1017740080001830F1007008023E84007108800077
:101784001830F1007008033E84007108800018309E
:10179400F1007008043E8400710880001830F100E4
:1017A4007008053E840071088000FF30F100700865
:1017B400063E840071088000FF30F1007008073E87
:1017C400840071088000FF2F1E30F100700884002F
:1017D4007108831380003F30F1007008013E8400DB
:1017E400710880003330F1007008023E84007108F3
:1017F40080003330F1007008033E840071088000DB
:101804003030F1007008043E8400710880003030EC
:10181400F1007008053E840071088000FF30F1007B
:101824007008063E840071088000FF30F1007008E3
:10183400073E840071088000FF2FC330F100700858
:1018440084007108831380006330F1007008013E46
:101854008400710880003330F1007008023E840077
:10186400710880001F30F1007008033E8400710885
:1018740080001F30F1007008043E8400710880006D
:101884003330F1007008053E840071088000633035
:10189400F1007008063E840071088000C330F10036
:1018A4007008073E840071088000FF2FFF30F100AC
:1018B40070088400710883138000FF30F100700801
:1018C400013E8400710880000330F1007008023E7C
:1018D4008400710880000330F1007008033E840026
:1018E400710880000330F1007008043E8400710820
:1018F40080000330F1007008053E84007108800008
:101904000330F1007008063E840071088000033043
:10191400F1007008073E840071088000FF2FC33077
:10192400F10070088400710883138000C330F10053
:101934007008013E840071088000C330F100700813
:10194400023E840071088000C330F1007008033E39
:10195400840071088000DB30F1007008043E8400CC
:1019640071088000FF30F1007008053E84007108A2
:101974008000E730F1007008063E840071088000A2
:10198400C330F1007008073E840071088000FF2F07
:10199400C330F10070088400710883138000E330C1
:1019A400F1007008013E840071088000F330F100FA
:1019B4007008023E840071088000FB30F10070085A
:1019C400033E840071088000DF30F1007008043E9B
:1019D400840071088000CF30F1007008053E840057
:1019E40071088000C730F1007008063E8400710859
:1019F4008000C330F1007008073E84007108800045
:101A0400FF2F3C30F10070088400710883138000BC
:101A14007E30F1007008013E840071088000C330FC
:101A2400F1007008023E840071088000C330F100A8
:101A34007008033E840071088000C330F100700810
:101A4400043E840071088000C330F1007008053E34
:101A54008400710880007E30F1007008063E840026
:101A6400710880003C30F1007008073E8400710862
:101A74008000FF2F0330F100700884007108831385
:101A840080000330F1007008013E8400710880007A
:101A94007F30F1007008023E840071088000FF303E
:101AA400F1007008033E840071088000C330F10027
:101AB4007008043E840071088000C330F10070088F
:101AC400053E840071088000FF30F1007008063E76
:101AD4008400710880007E30F1007008073E8400A5
:101AE40071088000FF2FDE30F10070088400710857
:101AF400831380007F30F1007008013E8400710878
:101B04008000F330F1007008023E84007108800008
:101B1400DB30F1007008033E840071088000C3309C
:101B2400F1007008043E840071088000C330F100A5
:101B34007008053E8400710880007E30F100700852
:101B4400063E8400710880003C30F1007008073EB6
:101B5400840071088000FF2FC330F10070088400F6
:101B6400710883138000E330F1007008013E8400A3
:101B7400710880007330F1007008023E840071081F
:101B840080007F30F1007008033E840071088000FB
:101B9400FF30F1007008043E840071088000C330F7
:101BA400F1007008053E840071088000FF30F100E8
:101BB4007008063E8400710880007F30F1007008D0
:101BC400073E840071088000FF2FFF30F100700889
:101BD4008400710883138000FF30F1007008013E17
:101BE400840071088000C030F1007008023E840057
:101BF40071088000FF30F1007008033E8400710812
:101C04008000FF30F1007008043E840071088000F9
:101C14000330F1007008053E840071088000FF3035
:101C2400F1007008063E840071088000FF30F10066
:101C34007008073E840071088000FF2F1830F100FF
:101C4400700884007108831380001830F100700854
:101C5400013E8400710880001830F1007008023ED3
:101C64008400710880001830F1007008033E84007D
:101C7400710880001830F1007008043E8400710877
:101C840080001830F1007008053E8400710880005F
:101C9400FF30F1007008063E840071088000FF30B8
:101CA400F1007008073E840071088000FF2F7E3029
:101CB400F10070088400710883138000FF30F10084
:101CC4007008013E840071088000C330F100700880
:101CD400023E840071088000C330F1007008033EA6
:101CE400840071088000C330F1007008043E840051
:101CF40071088000C330F1007008053E840071084B
:101D04008000C330F1007008063E84007108800032
:101D1400C330F1007008073E840071088000FF2F73
:101D24001830F100700884007108831380003C307F
:101D3400F1007008013E8400710880006630F100F3
:101D44007008023E840071088000E730F1007008DA
:101D5400033E840071088000C330F1007008043E23
:101D6400840071088000C330F1007008053E8400CF
:101D740071088000C330F1007008063E84007108C9
:101D84008000C330F1007008073E840071088000B1
:101D9400FF2FC330F10070088400710883138000A2
:101DA400E730F1007008013E840071088000FF30C4
:101DB400F1007008023E840071088000DB30F100FD
:101DC4007008033E840071088000C330F10070087D
:101DD400043E840071088000C330F1007008053EA1
:101DE400840071088000C330F1007008063E84004E
:101DF40071088000C330F1007008073E8400710848
:101E04008000FF2FC330F100700884007108831331
:101E14008000C330F1007008013E84007108800026
:101E24006630F1007008023E8400710880003C3086
:101E3400F1007008033E8400710880003C30F1001A
:101E44007008043E8400710880006630F100700858
:101E5400053E840071088000C330F1007008063E1E
:101E6400840071088000C330F1007008073E8400CC
:101E740071088000FF2F1830F10070088400710889
:101E8400831380001830F1007008013E840071084B
:101E940080001830F1007008023E84007108800050
:101EA4001830F1007008033E8400710880003C3053
:101EB400F1007008043E8400710880006630F1006F
:101EC4007008053E840071088000C330F10070087A
:101ED400063E840071088000C330F1007008073E9C
:101EE400840071088000FF2FFF30F1007008840027
:101EF400710883138000FF30F1007008013E8400F4
:101F0400710880000E30F1007008023E84007108F0
:101F140080001C30F1007008033E840071088000CA
:101F24002830F1007008043E84007108800070308D
:101F3400F1007008053E840071088000FF30F10054
:101F44007008063E840071088000FF30F1007008BC
:101F5400073E840071088000FF2F7208413A03197C
:101F6400E529033A03191E2A013A0319572A073AA5
:101F74000319902A013A0319C92A033A0319022BB7
:101F8400013A03193B2B0F3A0319742B013A031935
:101F9400AD2B033A0319E62B013A03191F2C073A18
:101FA4000319582C013A0319912C033A0319CA2C2A
:101FB400013A0319032D1F3A03193C2D013A031961
:101FC400752D033A0319AE2D013A0319E72D073A8B
:101FD4000319202E013A0319592E033A0319922E9C
:101FE400013A0319CB2E0F3A0319042F013A0319AE
:0C1FF4003D2F033A0319762FFF2F080041
:1020080083120313CB010A168A15C5240A168A11EE
:102018000A168A1597260A168A1183120313CA000C
:102028004A08CB004F284F280A128A114A200A165C
:102038008A114F280A168A1520260A168A110A16A6
:102048008A150E270A168A110A168A1587270A166C
:102058008A114F2801300A168A116D200A168A1132
:102068004F280A128A1502200A168A114F280A16C2
:102078008A11F6250A168A114F280A168A156D251F
:102088000A168A114F280A128A11E5200A168A119F
:102098004F284F284F28831203134B08013A03197E
:1020A8001828033A03191E28013A03192E28073A5B
:1020B80003193528013A03193B28033A0319412823
:1020C800013A031947284F284F284F280A128A1126
:1020D800002883120313B000353084005C30F5000B
:1020E8000408F6000830F700750884008313000818
:1020F800F800F50A7608840078088000F60AF70BDD
:102108007828B101B201E8283530F5007508F000EB
:102118003108300784000A128A1103200A168A112E
:102128000A128A15E3210A168A1183120313B301CE
:10213800B4013408803AFF0080307F02031DA628CE
:1021480008303302031CA928AA28AC28DF28DF2876
:102158000330F5007508F0003530F6007608F10018
:102168008312031333080A168A1151240A168A1196
:102178000330F7008A30F6005630F500F50BC22818
:10218800F60BC228F70BC228C928013083120313A3
:10219800B3070318B40A0030B4073408803AFF00C4
:1021A80080307F02031DDA2808303302031CDD2843
:1021B800DE28AC28DF28013083120313B107031887
:1021C800B20A0030B207E8283108300784000A1242
:1021D8008A1103200A168A110038031DF428F528ED
:1021E8008828F628080083120313B00031308400D1
:1021F8006430F5000408F6000830F700750884001C
:1022080083130008F800F50A76088400780880002F
:10221800F60AF70B0229C1293130F5007508F000DC
:1022280041300A128A15E3210A168A110330F50093
:102238007508F0003130F6007608F10007300A160C
:102248008A1151240A168A11DA293130F5007508E5
:10225800F00042300A128A15E3210A168A11033067
:10226800F5007508F0003130F6007608F100073007
:102278000A168A1151240A168A11DA293130F50012
:102288007508F00043300A128A15E3210A168A11EC
:102298000330F5007508F0003130F6007608F100DB
:1022A80007300A168A1151240A168A11DA293130A0
:1022B800F5007508F00044300A128A15E3210A1661
:1022C8008A110330F5007508F0003130F600760801
:1022D800F10007300A168A1151240A168A11DA29E0
:1022E8003130F5007508F00045300A128A15E321EF
:1022F8000A168A110330F5007508F0003130F6002F
:102308007608F10007300A168A1151240A168A1134
:10231800DA293130F5007508F00046300A128A15BE
:10232800E3210A168A110330F5007508F0003130F0
:10233800F6007608F10007300A168A1151240A16A9
:102348008A11DA293130F5007508F00047300A1291
:102358008A15E3210A168A110330F5007508F00082
:102368003130F6007608F10007300A168A11512438
:102378000A168A11DA29DA29DA29831203133008AE
:10238800013A03191029033A03192929013A0319B3
:102398004229073A03195B29013A03197429033AB8
:1023A80003198D29013A0319A629DA290800FB0027
:1023B8007008013A031DE129E229232AF301F401F7
:1023C8007408803AFF0080307F02031DED29083031
:1023D8007302031CF029F129F329162A162A013061
:1023E800F1007B0AF9290310F10DFF3E031DF729BF
:1023F8007108831203138700851485100130F307D1
:102408000318F40A0030F4077408803AFF0080309B
:102418007F02031D112A08307302031C142A152A8F
:10242800F329162AFF308312031388000730F200BD
:102438007D30F100F10B1E2AF20B1E2AEC2A7008DF
:10244800023A031D282A292AA32A7B08F100F2014F
:102458007108F5007208F6007608803AFF008030AF
:102468007F02031D392A0130750203183C2A3D2AD0
:102478003F2A582A582A8312031387018514851086
:10248800FF30F5070318F60AFF30F6077608803A9A
:10249800FF0080307F02031D532A013075020318A4
:1024A800562A572A3F2A582AFF30831203138700D7
:1024B800851485107B08F100F201F109F209F10A8F
:1024C8000319F20A7108073EF70072080318013E63
:1024D800003EF8007808803AFF0080307F02031D34
:1024E800772A0130770203187A2A7B2A7D2A962ACE
:1024F800962A83120313870185148510FF30F70786
:102508000318F80AFF30F8077808803AFF0080308F
:102518007F02031D912A013077020318942A952A15
:102528007D2A962AFF308312031388000730F200B1
:102538007D30F100F10B9E2AF20B9E2AEC2A7008DE
:10254800033A031DA82AA92AEC2AF901FA017A08F4
:10255800803AFF0080307F02031DB42A08307902D8
:10256800031CB72AB82ABA2AD42AD42AFF308312DD
:1025780003138700851485100130F9070318FA0A38
:102588000030FA077A08803AFF0080307F02031D86
:10259800CF2A08307902031CD22AD32ABA2AD42A8D
:1025A8000130F1007B0ADA2A0310F10DFF3E031D0A
:1025B800D82A71088312031388000730F2007D308F
:1025C800F100F10BE52AF20BE52AEC2AEC2AEC2AB9
:1025D800080083120313B10032308400E630F5009E
:1025E8000408F6000830F700750884008313000813
:1025F800F800F50A7608840078088000F60AF70BD8
:10260800F82AB0012C2CFF30F5007508B200813093
:10261800F5007508B3008130F5007508B4009930ED
:10262800F5007508B5009930F5007508B6008130D9
:10263800F5007508B7008130F5007508B800FF305F
:10264800F5007508B9000330F5007508F000323060
:10265800F6007608F10007300A168A1151240A1686
:102668008A11432CFF30F500750883120313B2005A
:102678008130F5007508B3008130F5007508B400A5
:10268800E730F5007508B500E730F5007508B600C5
:102698008130F5007508B7008130F5007508B8007D
:1026A800FF30F5007508B9000330F5007508F00033
:1026B8003230F6007608F10007300A168A115124E4
:1026C8000A168A11432CFF30F5007508831203138C
:1026D800B2008730F5007508B3008730F50075083B
:1026E800B4009930F5007508B5009930F500750803
:1026F800B600E130F5007508B700E130F50075085F
:10270800B800FF30F5007508B9000330F50075080A
:10271800F0003230F6007608F10007300A168A1108
:1027280051240A168A11432CFF30F50075088312CC
:102738000313B200E730F5007508B300E730F50081
:102748007508B4008130F5007508B5008130F500D2
:102758007508B600E730F5007508B700E730F500F2
:102768007508B800FF30F5007508B9000330F500AA
:102778007508F0003230F6007608F10007300A16C6
:102788008A1151240A168A11432CFF30F500750866
:1027980083120313B200E730F5007508B300E73081
:1027A800F5007508B4009930F5007508B500993042
:1027B800F5007508B600E730F5007508B700E73092
:1027C800F5007508B800FF30F5007508B90003304A
:1027D800F5007508F0003230F6007608F100073091
:1027E8000A168A1151240A168A11432CFF30F50063
:1027F800750883120313B200E730F5007508B300BB
:10280800E730F5007508B400E730F5007508B50045
:10281800E730F5007508B600E730F5007508B70031
:10282800E730F5007508B800FF30F5007508B90005
:102838000330F5007508F0003230F6007608F10034
:1028480007300A168A1151240A168A11432C432C80
:10285800831203133108013A0319072B033A0319AA
:10286800362B013A0319672B073A0319982B013ABB
:102878000319C92B033A0319FA2B432C432C83124F
:1028880003130618482C492C432C4B2C4B2C061CA4
:102898004E2C4F2C4B2C502C080083120313AB00EA
:1028A800A001A1010A30F2007208A2007008013AE2
:1028B800031D5F2C602CE82CAC01AD012D08803A7B
:1028C800FF0080307F02031D6B2C08302C02031C94
:1028D8006E2C6F2C712CF52DF52D83120313A70187
:1028E800A8012808803AFF0080307F02031D7E2C53
:1028F80008302702031C812C822C842CBA2CBA2C79
:10290800831203132C087107F200720884008313E2
:102918000008F3002703FF3A073E013E952C0310F9
:10292800F30CFF3E031D932C73080139F4002B0AA6
:102938009F2C0310F40DFF3E031D9D2C7408870087
:10294800851485100130A7070318A80A0030A807C6
:102958002808803AFF0080307F02031DB52C08301C
:102968002702031CB82CB92C842CBA2C0130F20095
:10297800831203132C0AC22C0310F20DFF3E031D11
:10298800C02C720888002130F3007630F200F20B78
:10299800CB2CF30BCB2C640083120313880101307A
:1029A800AC070318AD0A0030AD072D08803AFF00C8
:1029B80080307F02031DE22C08302C02031CE52C1A
:1029C800E62C712CF52DF52D7008023A031DED2C1F
:1029D800EE2CA42D83120313AE01AF012F08803A09
:1029E800FF0080307F02031DFB2C08302E02031CE1
:1029F800FE2CFF2C012DF52DF52D831203132B082A
:102A0800F200F3017208A3007308A4002408803AB6
:102A1800FF0080307F02031D132D013023020318AD
:102A2800162D172D192D322D322D831203138701E0
:102A380085148510FF30A3070318A40AFF30A407E4
:102A48002408803AFF0080307F02031D2D2D0130BD
:102A580023020318302D312D192D322D8312031323
:102A68002E087107F200720884008313000887009B
:102A7800851485102B08F200F301F209F309F20A14
:102A88000319F30A7208073EA50073080318013EEC
:102A9800003EA6002608803AFF0080307F02031D12
:102AA800572D0130250203185A2D5B2D5D2D762DEB
:102AB800762D83120313870185148510FF30A5072F
:102AC8000318A60AFF30A6072608803AFF008030C0
:102AD8007F02031D712D013025020318742D752DF9
:102AE8005D2D762D0130F200831203132E0A7E2D00
:102AF8000310F20DFF3E031D7C2D72088800213063
:102B0800F3007630F200F20B872DF30B872D64006B
:102B18008312031388010130AE070318AF0A00308F
:102B2800AF072F08803AFF0080307F02031D9E2DDB
:102B380008302E02031CA12DA22D012DF52DF52DF7
:102B48007008033A031DA92DAA2DF52D831203132E
:102B5800A901AA012A08803AFF0080307F02031DDC
:102B6800B72D08302902031CBA2DBB2DBD2DDD2D34
:102B7800DD2D8312031329087107F20072088400FF
:102B8800831300088700851485100130A9070318EE
:102B9800AA0A0030AA072A08803AFF0080307F027C
:102BA800031DD82D08302902031CDB2DDC2DBD2D7B
:102BB800DD2D0130F200831203132B0AE52D0310DB
:102BC800F20DFF3E031DE32D720888000730F30065
:102BD8007D30F200F20BEE2DF30BEE2DF52DF52DD9
:102BE800F52D0800503083120313C0000030C100D7
:102BF800423084009030F5000408F6000830F700F1
:102C08007508840083170008F800F50A7608840020
:102C1800831378088000F60AF70B042EC201C3015B
:102C2800C4011830F5007508C5001830F50075089E
:102C3800C600C701C801C901B001B1016E2E073035
:102C4800F6007D30F500F50B272EF60B272E033006
:102C580083120313B8000030B9003908803AFF0026
:102C680080307F02031D3A2E05303802031C3D2EAA
:102C78003E2E402E662E662E0330F5007508F000B5
:102C88004230F6007608F1008312031338080A165A
:102C98008A1151240A168A11013083120313B807C6
:102CA8000318B90A0030B9073908803AFF008030A4
:102CB8007F02031D612E05303802031C642E652E29
:102CC800402E662E013083120313B0070318B10A91
:102CD8000030B1073108803AF5004108803A7502A2
:102CE800031D782E40083002031C7B2E7C2E232ED9
:102CF80083120313C201C3013C30F5007508C400F8
:102D08003C30F5007508C5003C30F5007508C60074
:102D18003C30F5007508C700C801C901B201B3010C
:102D2800E12E0730F6007D30F500F50B992EF60BF5
:102D3800992E023083120313BA000030BB003B08FF
:102D4800803AFF0080307F02031DAC2E06303A0225
:102D5800031CAF2EB02EB22ED82ED82E0330F5007D
:102D68007508F0004230F6007608F100831203136C
:102D78003A080A168A1151240A168A110130831258
:102D88000313BA070318BB0A0030BB073B08803A95
:102D9800FF0080307F02031DD32E06303A02031C49
:102DA800D62ED72EB22ED82E013083120313B20797
:102DB8000318B30A0030B307E12E4008F63EF500C9
:102DC80041080318013EFF3EF6003308803AF70039
:102DD8007608803A7702031DF32E75083202031C29
:102DE800F62EF72E952E83120313C2017E30F500BE
:102DF8007508C3007E30F5007508C4007E30F50004
:102E08007508C5007E30F5007508C6007E30F500EF
:102E18007508C7007E30F5007508C800C901B401FF
:102E2800B501622F0730F6007D30F500F50B1A2F3B
:102E3800F60B1A2F013083120313BC000030BD00BB
:102E48003D08803AFF0080307F02031D2D2F073098
:102E58003C02031C302F312F332F592F592F0330A9
:102E6800F5007508F0004230F6007608F10083128C
:102E780003133C080A168A1151240A168A110130D4
:102E880083120313BC070318BD0A0030BD073D08B1
:102E9800803AFF0080307F02031D542F07303C0228
:102EA800031C572F582F332F592F01308312031328
:102EB800B4070318B50A0030B507622F4008EC3E86
:102EC800F50041080318013EFF3EF6003508803A38
:102ED800F7007608803A7702031D742F75083402CC
:102EE800031C772F782F162F792FFF30F5007508E0
:102EF80083120313C200FF30F5007508C300FF30CA
:102F0800F5007508C400FF30F5007508C500FF30EE
:102F1800F5007508C600FF30F5007508C700FF30DA
:102F2800F5007508C800FF30F5007508C900B6013E
:102F3800B701E82F0730F6007D30F500F50BA22F1A
:102F4800F60BA22F83120313BE01BF013F08803A7C
:102F5800FF0080307F02031DB32F08303E02031CA0
:102F6800B62FB72FB92FDF2FDF2F0330F5007508E5
:102F7800F0004230F6007608F100831203133E0891
:102F88000A168A1151240A168A1101308312031372
:102F9800BE070318BF0A0030BF073F08803AFF008A
:102FA80080307F02031DDA2F08303E02031CDD2F1C
:102FB800DE2FB92FDF2F013083120313B607031852
:102FC800B70A0030B707E82F4008E23EF50041088D
:102FD8000318013EFF3EF6003708803AF7007608EE
:102FE800803A7702031DFA2F75083602031CFD2F5D
:082FF800FE2F9E2FFF2F0800A1
:10393E0064008001840A0406031900340406A02CD6
:10394E0083134C3084006C300A168A159F240A1695
:10395E008A15E6308400EE300A168A159F240A1660
:10396E008A15831790308400A0300A168A159F247A
:10397E000A168A1583010A168A1104280130831645
:10398E0003138500033086008701880189018312A5
:10399E000313890188018701860185019F131F1377
:1039AE009F121F129F11831603139F179F151F152A
:1039BE009F141F10831203131F140800F401F50146
:1039CE00E82C701CEB2CEC2CF22C7208F40703186C
:1039DE00F50A7308F50701300310F20DF30DFF3EE3
:1039EE00031DF32C01300310F10CF00CFF3E031DF0
:1039FE00FA2C71087004031D052D062DE82C072DD9
:103A0E007508F101F1077408F001F0070E2D08009A
:103A1E00F401F501831203131F15152D1F19182D0F
:103A2E00192D152D0C131E08F200F3017208F40067
:103A3E007308F5007508F3007408F2007208F300BD
:103A4E00F2017208F4007308F5007408831603136C
:103A5E001E04F4007508F5007508F101F1077408ED
:103A6E00F001F0073A2D08003D2D3D2D0130FA00F2
:103A7E000030FB000030FC000030FD007A08F6023A
:103A8E007B08031C7B0F4C2D4D2DF7027C08031C6D
:103A9E007C0F522D532DF8027D08031C7D0F582DDF
:103AAE00592DF902FF307906031D672DFF30780678
:103ABE00031D672DFF307706031D672DFF30760639
:103ACE00031D6A2D6B2D3D2D6C2D08000130FC0061
:103ADE000030FD007D08803AFF0080307F02031D1C
:103AEE007A2D07307C02031C7D2D7E2D802DC32D5B
:103AFE00C32D831203130618852D862D942D882D24
:103B0E00882D061C8B2D8C2D882D8D2D7C080A164C
:103B1E008A11ED220A168A15942D0330831203138F
:103B2E00BA003A08F0007C080A168A11DB210A1640
:103B3E008A15023083120313BC000430BB00BA3066
:103B4E00BA00BA0BA82DBB0BA82DBC0BA82D640078
:103B5E000130FC070318FD0A0030FD077D08803A8E
:103B6E00FF0080307F02031DBE2D07307C02031C38
:103B7E00C12DC22D802DC32D080083120313880181
:103B8E00F801F9017908803AFF0080307F02031DA9
:103B9E00D22D08307802031CD52DD62DD82D0A2E05
:103BAE000A2E71087906031DDE2D70087806031D96
:103BBE00E12DE22DF02D0130F600720AE82D0310F2
:103BCE00F60DFF3E031DE62D7608831203138700C4
:103BDE00F42D831203138701F42D85148510013003
:103BEE00F8070318F90A0030F9077908803AFF0040
:103BFE0080307F02031D052E08307802031C082E2C
:103C0E00092ED82D0A2E0130F600740A102E03103C
:103C1E00F60DFF3E031D0E2E760883120313880049
:103C2E000730F7007D30F600F60B1B2EF70B1B2E20
:103C3E00080083120313A501A6012608803AFF008F
:103C4E0080307F02031D2D2E08302502031C302EDE
:103C5E00312E332E5A2E5A2EF0010314F00D8312EC
:103C6E00031325080A168A11DB210A168A150A3053
:103C7E000A128A1113200A168A15013083120313B1
:103C8E00A5070318A60A0030A6072608803AFF00EB
:103C9E0080307F02031D552E08302502031C582E3E
:103CAE00592E332E5A2E073083120313A7000030DD
:103CBE00A8002808803AFF0080307F02031D692E7D
:103CCE000130270203186C2E6D2E6F2E962E962E17
:103CDE00F0010314F00D8312031327080A168A113C
:103CEE00DB210A168A150A300A128A1113200A16C7
:103CFE008A15FF3083120313A7070318A80AFF3093
:103D0E00A8072808803AFF0080307F02031D912EFD
:103D1E00013027020318942E952E6F2E962E080032
:103D2E0083120313BB01062FF82EBB08031DA02E12
:103D3E00A12ED42EB901BA013A08803AFF00803084
:103D4E007F02031DAC2E08303902031CAF2EB02E9D
:103D5E00B22ED42ED42E0330FC007C08F000831239
:103D6E00031339080A168A11DB210A168A15013047
:103D7E0083120313B9070318BA0A0030BA073A08B8
:103D8E00803AFF0080307F02031DCF2E08303902AB
:103D9E00031CD22ED32EB22ED42E8312031306184A
:103DAE00D92EDA2EF82EDC2EDC2E061CDF2EE02E7F
:103DBE00DC2EE12E07303B020318E62EE72EEC2E0A
:103DCE000130FC007C08BB07F02EBB010314BB0DB9
:103DDE00F02E3B080A168A11F7200A168A15F82EBD
:103DEE00F82E831203138618FD2EFE2E9C2E002F06
:103DFE00002F861C032F042F002F062F062F3B08A3
:103E0E00031D0A2FF82E0B2F3B080D2F08008312CF
:103E1E000313A601A7012708803AFF0080307F0216
:103E2E00031D1B2F08302602031C1E2F1F2F212FB0
:103E3E00492F492F023083120313A5002508F000E5
:103E4E0026080A168A11DB210A168A150A300A126A
:103E5E008A1113200A168A15013083120313A6073E
:103E6E000318A70A0030A7072708803AFF00803002
:103E7E007F02031D442F08302602031C472F482FB4
:103E8E00212F492F073083120313A8000030A900F9
:103E9E002908803AFF0080307F02031D582F013021
:103EAE00280203185B2F5C2F5E2F862F862F023081
:103EBE0083120313A5002508F00028080A168A119C
:103ECE00DB210A168A150A300A128A1113200A16E5
:103EDE008A15FF3083120313A8070318A90AFF30AF
:103EEE00A9072908803AFF0080307F02031D812F29
:103EFE00013028020318842F852F5E2F862F08008D
:103F0E0083120313A601A7012708803AFF00803011
:103F1E007F02031D942F08302602031C972F982F23
:103F2E009A2FC22FC22F033083120313A500250828
:103F3E00F00026080A168A11DB210A168A150A30A5
:103F4E000A128A1113200A168A15013083120313DE
:103F5E00A6070318A70A0030A7072708803AFF0014
:103F6E0080307F02031DBD2F08302602031CC02F98
:103F7E00C12F9A2FC22F073083120313A8000030CF
:103F8E00A9002908803AFF0080307F02031DD12F3F
:103F9E00013028020318D42FD52FD72FFF2FFF2F34
:103FAE00033083120313A5002508F00028080A1613
:103FBE008A11DB210A168A150A300A128A11132079
:103FCE000A168A15FF3083120313A8070318A90ACD
:103FDE00FF30A9072908803AFF0080307F02031DB9
:103FEE00FA2F013028020318FD2FFE2FD72FFF2F97
:023FFE000800B9
:02400E0032FF7F
:00000001FF
